:020000040800F2
:1000000000000824CD0B0008010A0008030A0008BC
:10001000050A0008070A0008090A00080000000095
:100020000000000000000000000000000B0A0008B3
:100030000D0A0008000000000F0A0008110A00085D
:100040001D0C00081D0C00081D0C00081D0C0008EC
:100050001D0C00081D0C00081D0C00081D0C0008DC
:100060001D0C00081D0C00081D0C00081D0C0008CC
:100070001D0C00081D0C00081D0C00081D0C0008BC
:100080001D0C00081D0C00081D0C00081D0C0008AC
:100090001D0C00081D0C00081D0C00081D0C00089C
:1000A0001D0C00081D0C00081D0C00081D0C00088C
:1000B0001D0C00081D0C00081D0C00081D0C00087C
:1000C0001D0C00081D0C00081D0C00081D0C00086C
:1000D0001D0C00081D0C00081D0C00081D0C00085C
:1000E0001D0C00081D0C0008000000001D0C00087D
:1000F0001D0C00081D0C00081D0C00081D0C00083C
:100100001D0C00081D0C00081D0C00081D0C00082B
:100110001D0C00081D0C00081D0C00081D0C00081B
:100120001D0C00081D0C00081D0C00081D0C00080B
:100130001D0C00081D0C00081D0C00081D0C0008FB
:1001400000000000000000000000000000000000AF
:100150001D0C00081D0C00081D0C00081D0C0008DB
:100160001D0C00081D0C00081D0C00081D0C0008CB
:100170001D0C00081D0C00081D0C000800000000EC
:100180001D0C00081D0C00081D0C00081D0C0008AB
:100190001D0C00081D0C00081D0C00081D0C00089B
:1001A0001D0C00081D0C00081D0C00081D0C00088B
:1001B0001D0C00081D0C00081D0C00081D0C00087B
:1001C0001D0C00081D0C00081D0C00081D0C00086B
:1001D0001D0C00081D0C00081D0C00081D0C00085B
:1001E0001D0C00081D0C00081D0C00081D0C00084B
:1001F0001D0C00081D0C00081D0C00081D0C00083B
:100200001D0C00081D0C00081D0C00081D0C00082A
:100210001D0C00081D0C00081D0C00081D0C00081A
:100220001D0C00081D0C00081D0C0008000000003B
:100230001D0C00081D0C0008000000001D0C00082B
:100240001D0C00081D0C00081D0C00081D0C0008EA
:100250001D0C00081D0C00081D0C00081D0C0008DA
:100260001D0C00081D0C00081D0C00081D0C0008CA
:100270001D0C00081D0C00081D0C000800000000EB
:100280001D0C00081D0C00081D0C000800000000DB
:08029000000000001D0C000835
:1002980010B5054C237833B9044B13B10448AFF3B8
:1002A80000800123237010BD10000024000000000E
:1002B800B02F000808B5034B1BB103490348AFF33F
:1002C800008008BD0000000014000024B02F0008C2
:1002D80053B94AB9002908BF00281CBF4FF0FF31A5
:1002E8004FF0FF3000F074B9ADF1080C6DE904CEA1
:1002F80000F006F8DDF804E0DDE9022304B07047F9
:100308002DE9F047089D04468E46002B4DD18A42C0
:10031800944669D9B2FA82F252B101FA02F3C2F1F3
:10032800200120FA01F10CFA02FC41EA030E944084
:100338004FEA1C48210CBEFBF8F61FFA8CF708FBA5
:1003480016E341EA034306FB07F199420AD91CEB7D
:10035800030306F1FF3080F01F81994240F21C81AF
:10036800023E63445B1AA4B2B3FBF8F008FB1033F7
:1003780044EA034400FB07F7A7420AD91CEB04042C
:1003880000F1FF3380F00A81A74240F207816444FC
:10039800023840EA0640E41B00261DB1D440002381
:1003A800C5E900433146BDE8F0878B4209D9002DE5
:1003B80000F0EF800026C5E9000130463146BDE86F
:1003C800F087B3FA83F6002E4AD18B4202D38242D9
:1003D80000F2F980841A61EB030301209E46002D88
:1003E800E0D0C5E9004EDDE702B9FFDEB2FA82F2DD
:1003F800002A40F09280A1EB0C014FEA1C471FFA3B
:100408008CFE0126200CB1FBF7F307FB131140EA21
:1004180001410EFB03F0884208D91CEB010103F1EE
:10042800FF3802D2884200F2CB804346091AA4B2B0
:10043800B1FBF7F007FB101144EA01440EFB00FE84
:10044800A64508D91CEB040400F1FF3102D2A645E9
:1004580000F2BB800846A4EB0E0440EA03409CE788
:10046800C6F12007B34022FA07FC4CEA030C20FA35
:1004780007F401FA06F31C43F9404FEA1C4900FA55
:1004880006F3B1FBF9F8200C1FFA8CFE09FB1811D2
:1004980040EA014108FB0EF0884202FA06F20BD945
:1004A8001CEB010108F1FF3A80F08880884240F295
:1004B8008580A8F102086144091AA4B2B1FBF9F0D9
:1004C80009FB101144EA014100FB0EFE8E4508D9D4
:1004D8001CEB010100F1FF346CD28E456AD9023859
:1004E800614440EA0840A0FB0294A1EB0E01A1423E
:1004F800C846A64656D353D05DB1B3EB080261EBAC
:100508000E0101FA07F722FA06F3F1401F43C5E985
:10051800007100263146BDE8F087C2F12003D840BB
:100528000CFA02FC21FA03F3914001434FEA1C47FD
:100538001FFA8CFEB3FBF7F007FB10360B0C43EAEF
:10054800064300FB0EF69E4204FA02F408D91CEB9F
:10055800030300F1FF382FD29E422DD9023863449D
:100568009B1B89B2B3FBF7F607FB163341EA03413D
:1005780006FB0EF38B4208D91CEB010106F1FF388C
:1005880016D28B4214D9023E6144C91A46EA004683
:1005980038E72E46284605E70646E3E61846F8E615
:1005A8004B45A9D2B9EB020864EB0C0E0138A3E75E
:1005B8004646EAE7204694E74046D1E7D0467BE73F
:1005C800023B614432E7304609E76444023842E7B7
:1005D800704700BFF0B58DB014220021434F07A823
:1005E800434D02F0D9FC434B38460221D3F8E020B2
:1005F8000024012642F01002C3F8E020D3F8E020DE
:1006080002F010020192019AD3F8E02042F00402AD
:10061800C3F8E020D3F8E02002F004020292029A24
:10062800D3F8E02042F08002C3F8E020D3F8E020BD
:1006380002F080020392039AD3F8E02042F001020C
:10064800C3F8E020D3F8E02002F001020492049AF3
:10065800D3F8E02042F00202C3F8E020D3F8E0200B
:1006680002F002020592059AD3F8E02042F008024F
:10067800C3F8E0200022D3F8E03003F00803069323
:10068800069B00F079FC002228464FF4407100F0E8
:1006980073FC082307A918480994CDE9073400F02A
:1006A8007FFB022307A93846CDE90736CDE909447F
:1006B80000F076FB202307A910480994CDE90734F8
:1006C80000F06EFB4FF4407307A92846CDE90736C2
:1006D800CDE9094400F064FB602307A92846099482
:1006E800CDE9073400F05CFB0DB0F0BD0000025806
:1006F800000C025800440258001002580008025822
:1007080008B51348134A144BC0E9002300230122FB
:10071800C0E90433C0E90232C0E90633036200F0DD
:1007280030FC08B100F054F90021094800F07AFCC7
:1007380008B100F04DF90021054800F099FC08B116
:1007480000F046F90120BDE8084000F0B7BC00BF42
:100758002C000024005400404212400008B5134801
:10076800134A144BC0E9002300230122C0E90433D3
:10077800C0E90232C0E90633036200F002FC08B1A6
:1007880000F026F90021094800F04CFC08B100F0FF
:100798001FF90021054800F06BFC08B100F018F9BA
:1007A8000220BDE8084000F089BC00BF78000024A2
:1007B800005800404212400010B5B8B00446142258
:1007C800002104A802F0E8FBBC22002109A802F0DD
:1007D800E3FB2368324A93422FD1082309A80993DF
:1007E80001F036FA08B100F0F3F82E4CC0212E487B
:1007F800D4F8E03043F00203C4F8E030D4F8E03035
:1008080003F002030093009B1223CDE90413002395
:1008180004A9CDE906330423089300F0C1FAD4F8FB
:10082800E83043F40013C4F8E830D4F8E83003F4AF
:1008380000130193019B38B010BD1C4A9342FAD1B2
:10084800082309A8099301F003FA08B100F0C0F8D9
:10085800144C4FF4406204A91348D4F8E03043F034
:100868000203C4F8E030D4F8E03003F00203029346
:10087800029B1223CDE904230023CDE90633042388
:10088800089300F08DFAD4F8E83043F48003C4F8F4
:10089800E830D4F8E83003F480030393039BCAE7F5
:1008A8000054004000440258000402580058004018
:1008B80070B59EB04C2200210BA802F06DFB2022DF
:1008C800002103A802F068FB022000F00FFC0023BF
:1008D8000093354BDA6A22F00102DA62DB6A03F030
:1008E80001030093314B9A6942F440429A619A6934
:1008F80002F440420092009A9A699004FCD52C4A6E
:10090800D2F8F41041F00201C2F8F410D2F8F42041
:1009180002F002020192019A002202929A6942F4BC
:1009280040429A619B6903F4404302931E4BDA6A82
:1009380042F00102DA62DB6A1C4A03F00103029307
:10094800029B93699904FCD501234FF48032082651
:100958000224199340250BA81694CDE90B320C23D9
:10096800CDE91A630023CDE91444CDE91754CDE944
:100978001C3300F0DFFB08B172B6FEE703233F2209
:100988002146CDE903234FF48063CDE9050603A88A
:10099800CDE90755CDE9093500F0FEFE08B172B67C
:1009A800FEE71EB070BD00BF0004005800480258A2
:1009B8000044025808B500F055F9FFF779FFFFF732
:1009C80009FE00F083F8FFF79BFEFFF7C7FEFEE77E
:1009D80072B6FEE7074B82B0D3F8F42042F0020269
:1009E800C3F8F420D3F8F43003F002030193019B19
:1009F80002B0704700440258FEE7FEE7FEE7FEE754
:100A0800FEE770477047704700F05AB9254AD2F898
:100A1800883043F47003C2F88830234A136803F01F
:100A28000F03062B05D8136823F00F0343F00703C1
:100A380013601E4B1A6842F001021A6000221A6104
:100A48001B4A19680A4018491A600A68120705D52E
:100A58000A6822F00F0242F007020A6000221549D4
:100A68009A61DA611A6299621349D9621349196362
:100A78005A639963DA6319645A64196821F4802106
:100A880019601A660E4B1B681B0C1B04B3F1005F40
:100A980003D20C4B0122C3F808210B4B43F2D202BC
:100AA8001A60704700ED00E0002000520044025830
:100AB8007FEDF6EA000202020000FF018002010158
:100AC8000010005C008000510040005208B5164834
:100AD800164A174BC0E9002300230C22C0E9023351
:100AE800036183624366C0E90523C0E9083302F065
:100AF80079F908B1FFF76CFF00210B4802F0DFF924
:100B080008B1FFF765FF0021074802F0FCF908B1BA
:100B1800FFF75EFF044802F0B7F918B1BDE80840D6
:100B2800FFF756BF08BD00BFC4000024000C0058E2
:100B380040420F0010B5B6B004461422002102A8A6
:100B480002F02AFABC22002107A802F025FA22683E
:100B5800194B9A422ED1042307A8079301F078F87D
:100B680008B1FFF735FF154B02A91548D3F8F42053
:100B780042F00802C3F8F420D3F8F42002F0080287
:100B88000092009AD3F8E02042F00102C3F8E02076
:100B98004FF4C062D3F8E03003F001030193019BE6
:100BA8000223CDE902230023CDE90433032306936E
:100BB80000F0F6F836B010BD000C0058004402589A
:100BC80000000258DFF834D0FFF720FF0C480D4929
:100BD8000D4A002302E0D458C4500433C4188C4290
:100BE800F9D30A4A0A4C002301E013600432A242F6
:100BF800FBD302F0ADF9FFF7DDFE704700000824D3
:100C080000000024100000244830000810000024D0
:100C180058010024FEE7000038B50F4B0546187848
:100C280008B9012038BD4FF47A730C4AB3FBF0F3CE
:100C38001068B0FBF3F000F09FF804460028F0D1EC
:100C48000F2DEED8024629464FF0FF3000F062F82B
:100C5800034B20461D60E5E708000024000000243F
:100C68000C00002410B5032000F042F800F0F4FC5A
:100C78000F49104A8B69C3F30323D35C03F01F03A6
:100C8800D8408B6903F00F03D35C0B4A03F01F03B2
:100C980020FA03F31360094B18600F20FFF7BCFF1D
:100CA800044618B9FFF796FE204610BD0124FBE75D
:100CB80000440258C82F0008040000240000002443
:100CC800034A044B11681B780B441360704700BF3C
:100CD8005401002408000024014B1868704700BF25
:100CE80054010024014B1868000C70470010005C88
:100CF80007490302CA6803F4E06322F4E0621204BD
:100D0800120C134343F0BF6343F40033CB607047C6
:100D180000ED00E0164B30B5DC68C4F30224C4F1E2
:100D28000705231D042D28BF0425062B4FF0FF338C
:100D38008CBF033C002403FA05F5002803FA04F3EA
:100D480021EA050122EA030201FA04F141EA020359
:100D58004FEA0313DBB206DB00F1604000F56140A7
:100D680080F8003330BD00F00F00024A1354F9E751
:100D780000ED00E014ED00E00138B0F1807F0BD207
:100D88004FF0E023054AF0215861002082F8231033
:100D9800072298611A6170470120704700ED00E052
:100DA8002DE9F74F0023DFF8CC914FF0B0440A68E3
:100DB80032FA03F502D103B0BDE8F08F4FF0010E0F
:100DC8000EFA03FE1EEA020200F0BD804E684FEAEA
:100DD80043084FF0030C06F003050CFA08FC6F1EDD
:100DE8006FEA0C0C012F34D8876807EA0C0ACF6821
:100DF80007FA08F747EA0A078760476827EA0E0EE6
:100E0800C6F300179F4047EA0E074760C768022DE0
:100E180007EA0C0E8F6807FA08F747EA0E07C7605B
:100E280019D14FEAD30A03F0070B4FF00F0E00EB6E
:100E38008A0A4FEA8B0BDAF820700EFA0BFE27EAC3
:100E48000E0E0F6907FA0BF747EA0E07CAF820706B
:100E580001E0032DDAD1076805FA08F516F4403FDA
:100E680007EA0C0747EA050707606CD0D9F8F45081
:100E780023F0030703F0030C4FF00F0E45F00205B3
:100E880007F1B0474FEA8C0CC9F8F45007F58067B2
:100E9800D9F8F45005F002050195019D0EFA0CF5FC
:100EA800D7F8088028EA050E314DA8424DD005F53F
:100EB8008065A8424BD005F58065A84249D005F564
:100EC8008065A84247D005F58065A84245D005F55C
:100ED8008065A84243D005F58065A84241D005F554
:100EE8008065A8423FD005F58065A8423DD005F54C
:100EF8008065A8420CBF09250A2505FA0CF516F4E9
:100F0800801F45EA0E05BD606FEA020725680CBF21
:100F18003D40154316F4001F256065680CBF3D4031
:100F2800154316F4003F6560D4F884500CBF3D406B
:100F38001543F603C4F88450D4F8805054BF3D409C
:100F48001543C4F88050013331E70025D5E7012562
:100F5800D3E70225D1E70325CFE70425CDE705250B
:100F6800CBE70625C9E70725C7E70825C5E700BF7A
:100F780000000258004402580AB181617047090410
:100F8800FBE710B5044600284AD090F8413003F03A
:100F9800FF021BB980F84020FFF70EFC242384F8D9
:100FA800413023681A6822F001021A60626822F050
:100FB80070621A619A6822F400429A60D4E90221A8
:100FC800012924D142F400429A605A68002042F074
:100FD800007242F400425A60DA6822F40042DA6091
:100FE800D4E904210A43A16942EA0122DA60D4E97A
:100FF80007210A431A601A6842F001021A60202386
:10100800606484F84130206384F8420010BD42F4E3
:10101800044202299A60D8D14FF400625A60D4E79A
:101028000120F3E710B590F84130202BDCB21DD138
:1010380090F84030012B19D0242380F84130036800
:101048001A6822F001021A601A6822F480521A60A3
:101058001A68114319601A6842F001021A600023E5
:1010680080F8414080F84030184610BD0220FCE767
:1010780010B590F84130202BDCB21CD190F84030EC
:10108800012B18D0242380F8413003681A6822F015
:1010980001021A601A6822F4706242EA012119609A
:1010A8001A6842F001021A60002380F8414080F873
:1010B8004030184610BD0220FCE70000094A82B003
:1010C800D2F8F41041F00201C2F8F410D2F8F4207A
:1010D80002F002020192044A019B536818435060CF
:1010E80002B07047004402580004005838B5104C4C
:1010F800E36813F0040FE36805D103F00703181A37
:1011080018BF012038BD23F007031843E060FFF73C
:10111800E3FD054663689B0401D50020F2E7FFF76D
:10112800DBFD401BB0F57A7FF4D90120EAE700BF68
:1011380000480258F8B5044608B901208BE0036856
:10114800DF075ED423689E0700F1AF802368DA06C4
:1011580027D59E4B1A69996A02F03802082A07D0E7
:10116800182A40F0078101F00302012A40F00281A9
:101178001B68DB0502D5E369802BDED1FFF7B2FDE2
:1011880041F20303216A9842904B00F2EC805A68BE
:10119800202922F0F8420CBF42F0804242EA8162E4
:1011A8005A602368190700F1278123689A0600F11D
:1011B800488123685D071ED5854D2B6843F48073ED
:1011C8002B60FFF789FD06462B68DA0540F15E8142
:1011D800A3687E4D012B40F060812B6F43F0010323
:1011E8002B6741F28837FFF777FD784E0546336F56
:1011F8009B0740F17881606A002840F07B810020DD
:1012080029E0724B1A69996A02F03802102A05D04F
:10121800182A0AD101F00302022A06D11B689D038D
:1012280090D56368002B8DD187E76268B2F5803F5F
:1012380012D11A6842F480321A60FFF74DFD634EEE
:101248000546336898033FF57DAFFFF745FD401B22
:101258006428F6D90320F8BD5C4D2B689AB923F4AD
:1012680080332B602B6823F480232B60FFF734FD39
:1012780006462B6899037FF565AFFFF72DFD801BA8
:101288006428F6D9E6E7B2F5A02F07D143F4802306
:101298002B602B6843F480332B60CEE723F4803334
:1012A8002B602B6823F48023F6E7484BE1681A6922
:1012B800986A12F0380203D0182A2BD1820729D154
:1012C8001B685B0702D500293FF437AF3F4D2A68FA
:1012D80022F019020A432A60FFF7FEFC06462B6833
:1012E8005F0711D5FFF7FEFC41F20303226998421C
:1012F8006B6822D823F47C33402A0CBF43F40033B4
:1013080043EA02336B6021E7FFF7E6FC801B022803
:10131800E5D99FE71A68A9B122F019022B4D0A43B3
:101328001A60FFF7D9FC06462B685807DAD4FFF78E
:10133800D3FC801B0228F7D98CE723F0FE4343EA4D
:101348000263DFE722F00102204E1A60FFF7C4FCB7
:101358000546336859077FF5F9AEFFF7BDFC401B1A
:101368000228F6D976E7DA6822F07C5242EA01626E
:10137800DA6016E7E2696AB31A68144D42F080022F
:101388001A60FFF7A9FC06462B68DF0511D5FFF7A1
:10139800A9FC41F20303226A984210D86B68202AFC
:1013A80023F0F8430CBF43F0804343EA82636B6049
:1013B800F7E6FFF791FC801B0228E5D94AE7EB68BE
:1013C80023F07C5343EA0263EB60EAE600440258E8
:1013D800004802581A689F4E22F080021A60FFF7F0
:1013E8007BFC05463368D8057FF5DBAEFFF774FC58
:1013F800401B0228F6D92DE76369964D83B16B6FC0
:1014080043F001036B67FFF767FC06466B6F9B07AA
:101418003FF5CBAEFFF760FC801B0228F6D919E731
:101428006B6F23F001036B67FFF756FC06466B6F83
:101438009F077FF5BAAEFFF74FFC801B0228F6D94D
:1014480008E7A369834D83B12B6843F480532B606D
:10145800FFF742FC06462B6898043FF5AAAEFFF753
:101468003BFC801B0228F6D9F4E62B6823F4805352
:101478002B60FFF731FC06462B6899047FF599AE7F
:10148800FFF72AFC801B0228F6D9E3E6FFF724FCC5
:10149800801B64287FF698AEDCE6B3B92B6F41F267
:1014A800883723F001032B672B6F23F004032B6786
:1014B800FFF712FC06462B6F98077FF59CAEFFF7E7
:1014C8000BFC801BB842F6D9C4E6052B2B6F03D161
:1014D80043F004032B6780E623F001032B672B6F8F
:1014E80023F004037CE6FFF7F7FB401BB8427FF6C6
:1014F8007EAEAFE6574D2B6903F03803182B7AD030
:101508002B68022823F080732B6067D1FFF7E4FB78
:1015180006462B6899015BD4AB6AA26A23F47C73F4
:1015280023F003031343E26A43EA0213AB62636BDB
:10153800A26B013B013A5B0212049BB202F4FE0269
:101548001343226B013AC2F308021343E26B013AD8
:10155800120602F0FE4213432B63EB6A23F00103E9
:10156800EB626B6BA26C23F47F4323F0F80343EA2E
:10157800C2036B63EB6A226C23F00C031343EB6228
:10158800EB6A626C23F002031343EB62EB6A43F4E9
:101598008033EB62EB6A43F40033EB62EB6A43F4AB
:1015A8008023EB62EB6A43F00103EB622B6843F0A4
:1015B80080732B60FFF790FB264D04462B689A0139
:1015C8003FF51DAEFFF788FB001B0228F6D941E660
:1015D800FFF782FB801B02289BD93BE6FFF77CFBC9
:1015E80004462B689B017FF50AAEFFF775FB001BCD
:1015F8000228F6D92EE60128AA6A2B6B3FF42BAEF7
:1016080002F00301A06A81427FF497ADC2F305128C
:10161800E16A8A427FF491AD226BC3F30801013A73
:1016280091427FF48AAD626BC3F34621013A91423D
:101638007FF483ADA26BC3F30641013A91427FF474
:101648007CADE06BC3F306630138181A18BF01209C
:1016580001E600BF00440258484B1A6902F03802FC
:10166800102A30B500F08680182A0CD0002A40F0E5
:1016780083801A68424812F0200F03D01B68C3F316
:10168800C103D84030BD996A9D6ADC6A15F47C7F35
:10169800C5F305105A6BF5D0C2F3CC0204F001046F
:1016A80007EE900A01F003016243B7EE006AF8EE14
:1016B800E76A012907EE902AFAEEE97A4CD0022966
:1016C8003CD0002948D11A68920627D519682C4AB7
:1016D800C1F3C1011B6BCA40C3F3080307EE102A0C
:1016E800F8EEC75A85EEA67A06EE903AF8EEE66A64
:1016F80076EEA77A77EE867A204B67EE877A1B6BB1
:10170800C3F34623013307EE103AF8EEC76A87EEB3
:10171800A67AFCEEC77A17EE900AB3E71B6BC3F301
:10172800080307EE103AB8EEC77A77EE277A77EE15
:10173800867A9FED146A86EE267ADDE71B6BC3F383
:10174800080307EE103AB8EEC77A77EE277A77EEF5
:10175800867A9FED0D6AEEE71B6BC3F3080307EE6D
:10176800103AB8EEC77A77EE277A77EE867A9FED49
:10177800076AE0E7064885E7064883E70044025819
:101788000090D0030024744C20BCBE4B0024744A43
:1017980040787D0100093D002DE9F0410D460446E1
:1017A80010B90120BDE8F081884A136803F00F03DF
:1017B8008B42C0F0938023685F0700F19B801E076F
:1017C8000BD583496669C86900F07000864204D960
:1017D800CA6922F070023243CA61D8060BD57C4927
:1017E800A669C86900F4E060864204D9CA6922F48F
:1017F800E0623243CA6199060BD57549E669086A01
:1018080000F07000864204D90A6A22F0700232435E
:101818000A629A070BD56E49E668886900F00F00DE
:10182800864204D98A6922F00F0232438A61DF07AF
:101838006ED423689E0700F1A18064490A6802F00B
:101848000F02AA4200F2A880580700F1B1801907D8
:101858000BD55F496569C86900F07000854204D2FC
:10186800CA6922F070022A43CA61DA060BD55849C0
:10187800A569C86900F4E060854204D2CA6922F407
:10188800E0622A43CA619B060BD5514AE069116A96
:1018980001F07001884204D2136A23F070030343F5
:1018A8001362FFF7D9FE4A494A4A8B69C3F30323F7
:1018B800D35C03F01F03D8408B6903F00F03D35C9C
:1018C800454A03F01F0320FA03F31360434B1860E3
:1018D800434BBDE8F0411868FFF79EB9136823F041
:1018E8000F030B431360136803F00F038B427FF45D
:1018F80058AF60E736492669886900F0700086426B
:101908007FF65DAF8A6922F0700232438A6156E73A
:101918002F4BA1689A6922F470620A439A6162683F
:101928001B68022A1DD113F4003F3FF43AAF284E3A
:1019380041F28838336923F0070313433361FFF713
:10194800CBF907463369626803F03803B3EBC20F7B
:101958003FF46FAFFFF7C0F9C01B4045F2D9032031
:1019680020E7032A02D113F0007FDEE7012A02D123
:1019780013F4807FD9E713F0040FD6E71449E6681B
:10198800886900F00F008642BFF457AF8A6922F0D9
:101998000F0232438A6150E70A6822F00F022A4395
:1019A8000A600A6802F00F02AA427FF4FAAE4BE717
:1019B80007492569886900F070008542BFF447AF80
:1019C8008A6922F070022A438A6140E700200052A7
:1019D80000440258C82F0008040000240000002416
:1019E8000C00002410B50C4CFFF736FE0B49A36918
:1019F800C3F30323CA5CA36902F01F0203F00F03B9
:101A080020FA02F2CB5C03F01F0322FA03F0044B26
:101A18001860044B1A6010BD00440258C82F000813
:101A2800040000240000002408B5FFF7DBFF054B85
:101A3800054ADB69C3F30213D35C03F01F03D840E4
:101A480008BD00BF00440258C82F000808B5FFF7BA
:101A5800C9FF054B054ADB69C3F30223D35C03F0D6
:101A68001F03D84008BD00BF00440258C82F000813
:101A7800F8B53A4C06460D46A36A03F00303032B58
:101A880069D0236823F080632360FFF725F90746B0
:101A980023681A014BD4A36A326823F47C3343EADF
:101AA8000233A362B368F268013B013A5B02120495
:101AB8009BB202F4FE0213437268013AC2F30802B1
:101AC80013433269013A120602F0FE421343A3633C
:101AD800E36A726923F0C0031343E362E36AB269FD
:101AE80023F020031343E362E36A23F01003E36265
:101AF800E36BF26923F47F4323F0F80343EAC2035C
:101B0800E363E36A43F01003E362E36AB5B943F4BD
:101B18000023E362114C236843F080632360FFF7DE
:101B2800DBF8054623681B010FD5002005E0FFF709
:101B3800D3F8C01B0228ABD90320F8BD012D0CBF78
:101B480043F4801343F40013E3E7FFF7C5F8401BA1
:101B58000228E7D9F0E70120EFE700BF0044025868
:101B6800F8B53A4C06460D46A36A03F00303032B67
:101B780069D0236823F080532360FFF7ADF8074648
:101B880023689A004BD4A36A326823F07C7343EA33
:101B98000253A362B368F268013B013A5B02120484
:101BA8009BB202F4FE0213437268013AC2F30802C0
:101BB80013433269013A120602F0FE4213432364CA
:101BC800E36A726923F440631343E362E36AB26928
:101BD80023F400731343E362E36A23F48073E3623C
:101BE800636CF26923F47F4323F0F80343EAC203EA
:101BF8006364E36A43F48073E362E36AB5B943F468
:101C08008003E362114C236843F080532360FFF79D
:101C180063F8054623689B000FD5002005E0FFF711
:101C28005BF8C01B0228ABD90320F8BD012D0CBFFF
:101C380043F4000343F08073E3E7FFF74DF8401BDC
:101C48000228E7D9F0E70120EFE700BF0044025877
:101C58002DE9F8430668054616F0006609D0436E7C
:101C6800B3F5001F2ED013D8F3B1B3F5801F21D0E0
:101C780001262B68DC0540F1EA806B6D042B00F22D
:101C8800E580DFE813F024002B00DD00290029009F
:101C9800B3F5401FECD1A64A0026696E136D23F4F4
:101CA80040130B431365E4E7A14AD36A43F40033B6
:101CB800D362F0E702210430FFF7DAFE0646002877
:101CC800D7D1E8E702212430FFF74AFFF6E7984A20
:101CD800D36A43F40033D362344604E00021281D5C
:101CE800FFF7C6FE0446002C40F0B380904A696DA9
:101CF800136D23F007030B4313652B6898050DD567
:101D0800AB6D802B00F0C28000F2A580002B00F0A4
:101D1800B180402B00F0B480012634462B68590569
:101D280010D5D5F8A430B3F5800F00F0D48000F2B8
:101D3800B580002B00F0C380B3F5001F00F0C5800C
:101D4800012634462B681A0510D5D5F8A830B3F10A
:101D5800007F00F0E58000F2C680002B00F0D48000
:101D6800B3F1807F00F0D680012634462B689B01B2
:101D78000DD5AB6C202B00F0EF8000F2DB80002B40
:101D880000F0DB80102B00F0E180012634462B6840
:101D9800DF040FD5EB6DB3F5005F00F0018100F2B1
:101DA800E380002B00F0F080B3F5805F00F0F28054
:101DB800012634462B6898040FD52B6EB3F5003FE7
:101DC80000F00E8100F2F480002B00F0FA80B3F5E9
:101DD800803F00F0FF80012634462B68590410D557
:101DE800D5F8AC30B3F1005F00F01B8100F2008140
:101DF800002B00F00681B3F1805F00F00C81012612
:101E080034462B681A040DD5EB6EB3F1805F00F0F1
:101E18001081B3F1005F00F01A81002B00F00E81F1
:101E2800012634462B68DB0140F127816B6C032BBC
:101E380000F26781DFE813F0180113015F01180150
:101E4800002105F12400FFF78BFE4BE701263446FD
:101E580053E7264651E7C02B03D0B3F5807F7FF4C4
:101E68005BAFCCB9324AA96D136D23F4E0730B4311
:101E7800136553E72E4AD36A43F40033D362F0E77D
:101E88000021281DFFF7F4FD0446EAE7002105F1CB
:101E98002400FFF765FEF7E726463FE7B3F5C00FD6
:101EA80003D0B3F5000F7FF44BAFD4B9204AD5F86F
:101EB800A410936D23F460030B43936542E71C4A17
:101EC800D36A43F40033D362EFE70021281DFFF7FC
:101ED800CFFD0446E9E7002105F12400FFF740FEA5
:101EE800F7E726462EE7B3F1407F03D0B3F1806FC2
:101EF8007FF43AAFD4B90E4AD5F8A810936D23F001
:101F0800E0630B43936531E7094AD36A43F400332E
:101F1800D362EFE70021281DFFF7AAFD0446E9E791
:101F2800002105F12400FFF71BFEF7E726461DE711
:101F380000440258302B7FF428AF9CB99D4AA96C05
:101F4800D36C23F030030B43D36420E7994AD36A58
:101F580043F40033D362F0E70221281DFFF788FD20
:101F68000446EAE7264612E7B3F5405F03D0B3F527
:101F7800804F7FF41DAFCCB98E4AE96D136D23F401
:101F8800E0430B43136515E78A4AD36A43F40033E9
:101F9800D362F0E70021281DFFF76AFD0446EAE74F
:101FA800002105F12400FFF7DBFDF7E7264601E7EE
:101FB80023F48032B2F5802F03D0B3F5403F7FF48D
:101FC8000AAF9CB97B4A296E136D23F4E0230B43B7
:101FD800136502E70121281DFFF74AFD0446F0E7D3
:101FE800012105F12400FFF7BBFDF7E72646F4E6DB
:101FF80023F08052B2F1804F03D0B3F1405F7FF4F9
:10200800FEAEA4B96B4AD5F8AC10936D23F0E0434B
:102018000B439365F5E60121281DFFF729FD0446CA
:10202800EFE7012105F12400FFF79AFDF7E72646BF
:10203800E7E6604AD36A43F40033D3626CB95D4A79
:10204800E96E136D23F040530B431365EAE6012153
:10205800281DFFF70DFD0446F0E72646E2E6554A3F
:10206800D36A43F40033D362002C4DD1514A696CD2
:10207800D36C23F003030B43D3642B685F024DD565
:102088004D4F3B6843F480733B60FEF725FE804666
:102098003B68D8053AD5002C6CD1464BD5F8B00032
:1020A8001A6F424012F4407F0BD01A6F196F22F456
:1020B800407241F480311967196F21F48031196732
:1020C8001A67B0F5807F40D0D5F8B030394903F4AD
:1020D8004072B2F5407F49D10869384A20F47C50F3
:1020E80002EA131202430A61C3F30B03314A116F68
:1020F8000B43136712E00221281DFFF7B9FC0446C1
:10210800B2E701263446B8E72646B6E7FEF7E4FD0F
:10211800A0EB08006428BBD9032634462B68DA07ED
:1021280008D5AB6F102B3CD026D85BB3082B32D028
:10213800012634462B689B074FD56B6F052B62D859
:10214800DFE803F0433E5B434343FEF7C5FDDFF89A
:102158006480074641F28839D8F870309907B3D4BB
:10216800FEF7BAFDC01B4845F6D9D5E70A6922F43F
:102178007C52B8E72646D1E723F00802202A01D08E
:10218800182BD5D19CB90B4AA96F536D23F038038E
:102198000B435365CEE70121281DFFF769FC044670
:1021A800F0E7012105F12400FFF7DAFCF7E72646FE
:1021B800C0E700BF0044025800480258CFFFFF00A4
:1021C8000121281DFFF754FC0446FCB9A64A696F93
:1021D800536D23F007030B4353652B685F0727D51F
:1021E800D5F89030052B00F23981DFE813F016009E
:1021F80011003101160016001600012105F1240016
:10220800FFF7AEFCE0E701263446E6E72646E4E7BA
:102218000121281DFFF72CFC0446002C40F02181E9
:10222800914AD5F89010936D23F007030B439365FB
:102238002B68980610D5D5F88C30B3F1005F00F004
:102248002E8100F21381002B00F01981B3F1805F19
:1022580000F01F81012634462B68590610D5D5F8A1
:102268009830B3F5006F00F03B8100F22081002B1D
:1022780000F02681B3F5806F00F02C8101263446EA
:102288002B681A0610D5D5F89C30B3F5804F00F0AE
:10229800488100F22D81002B00F03381B3F5005FF7
:1022A80000F03981012634462B681B0714D5D5F870
:1022B8008030B3F5805F07D1022105F12400FFF7D4
:1022C8004FFC002818BF0126674AD5F88010536DC7
:1022D80023F440530B4353652B68DF0614D5D5F818
:1022E8009430B3F5807F07D1022105F12400FFF770
:1022F80037FC002818BF01265B4AD5F89410936D67
:1023080023F440730B4393652B6818031AD5D5F84B
:10231800A010B1F5803F00F00C81B1F5003F06D068
:10232800002940F00C81281DFFF7A2FB0446002C71
:1023380040F008814C4AD5F8A010936D23F440333F
:102348000B4393652B6859031CD5D5F88430B3F536
:10235800001F00F0F980B3F5401F08D0B3F5801FC7
:1023680040F0F980404AD36A43F40033D362002C2A
:1023780040F0F4803C4AD5F88410536D23F44013A0
:102388000B4353652B68DA0309D5EB6C002B00F07F
:10239800E780B3F5803F00F0F180012634462B68D2
:1023A8009B0007D5022105F12400FFF7D9FB00287F
:1023B80018BF01262B689F030AD5E96FB1F5807F06
:1023C80000F0F28000F2E280002900F0E5800126AA
:1023D800DC0206D52449286F0A6D22F00042024328
:1023E8000A65D80007D52049D5F8B4000A6922F44F
:1023F800804202430A61990206D51B49A86E0A6DFC
:1024080022F0807202430A655A0009D5164A1169FA
:1024180021F4004111611169D5F8B8000143116137
:10242800002B06DA1049286DCA6C22F0405202438C
:10243800CA641B0207D50C4AD5F88810536D23F4DB
:1024480040030B435365301E18BF0120BDE8F883D5
:10245800012105F12400FFF783FBDDE60126344660
:10246800E6E62646E4E600BF0044025823F0805220
:10247800B2F1804F03D0B3F1405F7FF4EBAEA4B963
:102488004D4AD5F88C10536D23F0E0430B43536548
:10249800E2E60021281DFFF7EBFA0446EFE70221E8
:1024A80005F12400FFF75CFBF7E72646D4E623F4A2
:1024B8008062B2F5805F03D0B3F5406F7FF4DEAE83
:1024C800A4B93D4AD5F89810936D23F4E0530B4313
:1024D8009365D5E60021281DFFF7CAFA0446EFE701
:1024E800022105F12400FFF73BFBF7E72646C7E684
:1024F80023F40052B2F5004F03D0B3F5C04F7FF478
:10250800D1AEA4B92C4AD5F89C10936D23F460433E
:102518000B439365C8E60021281DFFF7A9FA044676
:10252800EFE7022105F12400FFF71AFBF7E726463B
:10253800BAE6022105F12400FFF712FBF6E60126B0
:102548003446FFE62646FDE6012105F12400FFF7A3
:1025580007FB04460BE70126344613E7264611E736
:10256800154AD36A43F40033D3626CB9124AE96C52
:10257800D36C23F480330B43D36410E70221281D66
:10258800FFF776FA0446F0E7264608E721F480725A
:10259800B2F5007F7FF41BAF64B90748426D22F49F
:1025A80040720A43426513E70348C26A42F40032A4
:1025B800C262F1E726460BE70044025808B5FFF768
:1025C80011FA054B054A1B6AC3F30213D35C03F0E7
:1025D8001F03D84008BD00BF00440258C82F000898
:1025E8004E4A70B5946A966AD56A16F47C3FC6F36B
:1025F8000531D36B00F08D8007EE901AC3F3CC033E
:10260800C5F3001104F00304F8EEE76A4B43012C0C
:10261800B7EE006A07EE903AFAEEE97A6BD0022C30
:102628005BD0002C67D113689B0646D51168936B65
:10263800C1F3C1013A4AC3F30803CA4007EE102A9E
:10264800F8EEC75A85EEA67A06EE903AF8EEE66AF4
:1026580076EEA77A77EE867A304A67EE877A936BBA
:10266800C3F3462307EE103AB8EEC77A37EE067A78
:10267800C7EE876AFCEEE66AC0ED006A936BC3F3A7
:10268800064307EE103AB8EEC77A37EE067AC7EE79
:10269800876AFCEEE66AC0ED016A936BC3F30663D2
:1026A80007EE103AB8EEC77A37EE066A87EE867AF2
:1026B800BCEEC77A80ED027A70BD936BDFED195AD4
:1026C800C3F3080307EE103AB8EEC77A77EE277A15
:1026D80077EE867A85EEA67ABEE7936BDFED125A1F
:1026E800C3F3080307EE103AB8EEC77A77EE277AF5
:1026F80077EE867AEEE7936BDFED0C5AC3F30803A7
:1027080007EE103AB8EEC77A77EE277A77EE867A30
:10271800E0E7C0E900118160CEE700BF004402583D
:102728000090D0030024744C20BCBE4B0024744A93
:102738004E4A70B5946A966AD56A16F07C7FC6F3DD
:102748000551536C00F08D8007EE901AC3F3CC034B
:10275800C5F3002104F00304F8EEE76A4B43012CAB
:10276800B7EE006A07EE903AFAEEE97A6BD0022CDF
:102778005BD0002C67D113689B0646D51168136C93
:10278800C1F3C1013A4AC3F30803CA4007EE102A4D
:10279800F8EEC75A85EEA67A06EE903AF8EEE66AA3
:1027A80076EEA77A77EE867A304A67EE877A136CE8
:1027B800C3F3462307EE103AB8EEC77A37EE067A27
:1027C800C7EE876AFCEEE66AC0ED006A136CC3F3D5
:1027D800064307EE103AB8EEC77A37EE067AC7EE28
:1027E800876AFCEEE66AC0ED016A136CC3F3066300
:1027F80007EE103AB8EEC77A37EE066A87EE867AA1
:10280800BCEEC77A80ED027A70BD136CDFED195A01
:10281800C3F3080307EE103AB8EEC77A77EE277AC3
:1028280077EE867A85EEA67ABEE7136CDFED125A4C
:10283800C3F3080307EE103AB8EEC77A77EE277AA3
:1028480077EE867AEEE7136CDFED0C5AC3F30803D4
:1028580007EE103AB8EEC77A77EE277A77EE867ADF
:10286800E0E7C0E900118160CEE700BF00440258EC
:102878000090D0030024744C20BCBE4B0024744A42
:1028880030B504460368C06987B02169A2681D682D
:102898000A4361690A439749024329400A43E168A8
:1028A8001A605A6822F440520A43A1695A60924A4F
:1028B80093421CBF226A11439A6822F06E4222F4A6
:1028C80030620A43616A9A60DA6A22F00F020A43A8
:1028D800DA628A4A93421BD1894B5B6D03F0380355
:1028E800282B6CD8874AB0F5004FD35C40F0328172
:1028F800082B00F2C080082B61D8DFE813F0E7004E
:10290800EC0060006000EF00600060006000F40010
:102918007D4A934207D17A4B5B6D03F00703052B81
:102928004DD87A4ADFE77A4A934207D1744B5B6DF8
:1029380003F00703052B42D8764AD4E7764A934238
:1029480007D16F4B5B6D03F00703052B37D8734A2C
:10295800C9E7734A934207D1694B5B6D03F00703DC
:10296800052B2CD86F4ABEE76F4A934207D1644BB8
:102978005B6D03F03803282B21D86C4AB3E76C4A07
:10298800934207D15E4B5B6D03F00703052B16D806
:10299800684AA8E7684A934207D1594B5B6D03F030
:1029A8000703052B0BD8654A9DE7534A934206D186
:1029B80002F50E32936D03F00703052B01D90120B0
:1029C8000EE05F49CB5C102B23D011D8042B16D016
:1029D800082B19D0022BF2D1FFF7F0FD10BB002015
:1029E8004FF00113A3660023C4E91C3307B030BDC0
:1029F800202B3ED0402BE2D14FF4004012E0684635
:102A0800FFF7EEFD0198E9E703A8FFF791FE0498A8
:102A1800E4E713684B4813F0200F03D01368C3F39F
:102A2800C103D840484B626A656833F8122005EB49
:102A38004501B0FBF2F39942C1D8B3EB053FBED8CC
:102A480000231946FDF744FC2A4609026B0841EAAF
:102A580010610002C0184FF0000341F10001FDF7BA
:102A680037FC3A4BA0F540729A42A8D82368D86040
:102A7800B5E73748D6E7202B3AD0402B0BD0102BA0
:102A88009DD11F4B2F481A6812F0200F03D01B68E6
:102A9800C3F3C103D840616A2B4B626833F8113025
:102AA800B0FBF3F3500800EB43004FF6EF73B0FBB5
:102AB800F2F0A0F110029A4281D820F00F03C0F37F
:102AC800420022689BB21843D06088E7FEF7ACFF4B
:102AD800002884D0DFE7FEF7B9FFF9E76846FFF77B
:102AE8007FFD0198F4E703A8FFF722FE0498EFE7BB
:102AF8001748D0E7F369FFCF000C005800100140D9
:102B080000440258D82F0008004400400130000853
:102B18000048004001300008004C00400130000827
:102B2800005000400130000800140140D82F000870
:102B38000078004001300008007C004001300008A7
:102B4800073000080090D0030E300008FFFC0F008B
:102B580000093D00082B17D8082B3FF630AF01A21B
:102B680052F823F0D32B0008DF2B0008C7290008F0
:102B7800C7290008E52B0008C7290008C72900084D
:102B8800C7290008EF2B0008202B31D0402B31D06B
:102B9800102B7FF414AF194B19481A6812F0200F44
:102BA80003D01B68C3F3C103D840616A154A636840
:102BB80032F81120B0FBF2F000EB5300B0FBF3F059
:102BC8004FF6EF73A0F110024EE7FEF72DFF002835
:102BD8003FF405AFE9E7FEF739FFF8E76846FFF786
:102BE800FFFC0198F3E703A8FFF7A2FD0498EEE7BE
:102BF8000548DAE74FF40040D7E700BF0044025821
:102C08000090D0030E30000800093D00836ADA07FF
:102C180010B506D50168C46A4A6822F40032224316
:102C28004A609C0706D50168046B4A6822F4803222
:102C380022434A60590706D50168446B4A6822F462
:102C4800802222434A601A0706D50168846B4A68C5
:102C580022F4004222434A60DC0606D50168C46BB0
:102C68008A6822F4805222438A60990606D5016850
:102C7800046C8A6822F4005222438A605A0610D5EE
:102C88000168446C4A68B4F5801F22F4801242EA55
:102C980004024A6005D14A68846C22F4C0022243C7
:102CA8004A601B0606D50268C16C536823F40023EA
:102CB8000B43536010BD2DE9F041DDF81880044640
:102CC8000E4615461F462268D36936EA03030CBF31
:102CD80001230023AB4201D0002027E0B8F1FF3FD9
:102CE800F2D0FDF7F9FFC01B4045206802D8B8F1C3
:102CF800000F1DD150E8003F23F4D07340E80032A4
:102D0800002AF7D100F1080353E8003F23F001033C
:102D180000F1080141E80032002AF3D12023C4F869
:102D28008430C4F88830032084F88020BDE8F0811E
:102D380003685A07C7D5C3691B05C4D54FF4006398
:102D4800036250E8003F23F4D07340E80032002AC1
:102D5800F7D100F1080353E8003F23F0010300F125
:102D6800080141E80032002AF3D12023C4F8843056
:102D7800C4F88830C4F88C30D5E730B5002504464F
:102D880085B0C0F88C50FDF7A7FF2268034612688B
:102D9800110717D422681268520709D56FF07E42CE
:102DA8004FF48001204600920022FFF784FFB0B95B
:102DB80020230020C4F8843084F88000C4F88830C8
:102DC800E0660DE06FF07E4203904FF4001120465C
:102DD80000922A46FFF76FFF039B0028DAD00320F2
:102DE80005B030BD10B5044650B3D0F884301BB9D7
:102DF80080F88030FDF79EFE226824232046C4F820
:102E08008430136823F001031360FFF739FD0128AC
:102E180016D0A36A13B12046FFF7F8FE23682046B0
:102E28005A6822F490425A609A6822F02A029A60FC
:102E38001A6842F00102BDE810401A60FFF79DBF12
:102E4800012010BD436E30B51BB94FF001138366E6
:102E580030BD03680A4D9A6899680A4CC2F3426209
:102E6800490F6B5C615C1B01B3FBF1F3A0F86A309E
:102E7800AB5CA25C1B01B3FBF2F3A0F86830E7E798
:102E88002E3000082630000890F88030012B14D02E
:102E980002682423C0F884301168136821F00051B7
:102EA80023F001031360002343661160202280F899
:102EB8008030C0F88420184670470220704738B523
:102EC80090F880300446012B1BD0012380F8803015
:102ED8002423C0F8843003681D681A6822F00102B0
:102EE8001A609A6822F0604211439960FFF7AAFFBE
:102EF80003681D602023C0F88430002084F8800017
:102F080038BD0220FCE738B590F880300446012B24
:102F18001BD0012380F880302423C0F88430036854
:102F28001D681A6822F001021A609A6822F060622D
:102F380011439960FFF786FF03681D602023C0F8DE
:102F48008430002084F8800038BD0220FCE70000AF
:102F580070B50D4D0D4C641BA4100026A64209D176
:102F68000B4D0C4C00F020F8641BA4100026A64260
:102F780005D170BD55F8043B98470136EEE755F882
:102F8800043B98470136F2E740300008403000081B
:102F9800403000084430000802440346934200D100
:102FA800704703F8011BF9E7F8B500BFF8BC08BC87
:102FB8009E467047F8B500BFF8BC08BC9E467047EF
:102FC80000000000010203040102030406070809C7
:102FD80001808080808080800480808080808080E4
:102FE80008808080808080801080808080808080C1
:102FF800208080808080808040000408102040026B
:103008000408102040000100020004000600080027
:103018000A000C0010002000400080000001080495
:103028000204080101010101010307010000000079
:08303800D0D2FF7F010000006F
:04304000BD020008C5
:0430440099020008E5
:103048000090D0030090D0030100000010000000A1
:0400000508000BCD17
:00000001FF
